:100000000C9434000C9446000C9446000C9446006A
:100010000C9446000C9446000C9446000C94460048
:100020000C9446000C9446000C9446000C94460038
:100030000C9446000C9446000C9448000C94460026
:100040000C9446000C9446000C9446000C94460018
:100050000C9446000C9446000C9446000C94460008
:100060000C9446000C94460011241FBECFEFD8E03C
:10007000DEBFCDBF21E0A0E0B1E001C01D92A43001
:10008000B207E1F70E94C0000C9487020C940000B4
:100090001F921FB61F9211248F939F93AF93BF930C
:1000A0008091000190910101A0910201B0910301A2
:1000B0000196A11DB11D8093000190930101A093B1
:1000C0000201B0930301BF91AF919F918F911F9057
:1000D0001FBE1F90189582E084BD93E095BD99EFF7
:1000E00097BD80936E000895F8946091000170911F
:1000F000010180910201909103017894089580E4B8
:1001000080937C0087E880937A00089587708064EC
:1001100080937C0080917A00806480937A00809143
:100120007A0086FDFCCF8091780090917900089547
:1001300085B1837C85B9089585B18C6385B90895AF
:1001400028988BB18F738BB90895CF93DF93EC010F
:100150000E94A000C130D10520F4289ADF91CF91F0
:10016000089511F45F9AFACFC230D10511F45E9A66
:10017000F5CF239799F7289A8BB1806C8BB9EECF86
:10018000CDB7DEB7A0970FB6F894DEBF0FBECDBFD8
:1001900084B18C6384B9209A8AB1806C8AB98AB19F
:1001A000837C8AB921988BB18C638BB9299A0E9480
:1001B0007F000E946B00789489B18470898F1A8EB9
:1001C00041E050E04F87188ABA016D8F1E8ECA0138
:1001D0008B8F1C8E212C312C1F8E18A28101410186
:1001E0005101210131011B861C861D861E861D8240
:1001F0001E821F8218861D8A1E8A1F8A188E0E94E0
:1002000074006B017C0180E090E00E948600BC01DC
:10021000C601D7012D893E894F89588D821B930BCA
:10022000A40BB50B89839A83AB83BC8326EF39E09B
:10023000DB010E9471022FEF33E040E050E00E94AA
:100240004F02C901DA0186509F4FAF4FBF4F49811E
:100250005A816B817C81481759076A077B0730F008
:1002600051E00527CD8ADE8AEF8AF88E0115110547
:1002700009F49BC00E949C0089B18470898389B174
:100280008981698D7A8D86171706F1F0C601D7012D
:100290002D813E814F815885821B930BA40BB50B9A
:1002A0000497A105B10580F03981311509F480C0AA
:1002B0004FEF241A340ACD82DE82EF82F88655E0B1
:1002C000251631040CF079C029B124FB662760F9AA
:1002D000698B1A8AE9B1E5FB772770F97B8B1C8A59
:1002E000F3B1F1FB882780F989871A86AB8DBC8D25
:1002F00049895A89A417B507A9F0A601B7018B85CA
:100300009C85AD85BE85481B590B6A0B7B0B4F3115
:1003100051056105710530F0CB86DC86ED86FE86E1
:1003200024FF4EC0AD8DBE8D2B893C89A217B3072B
:10033000A1F0A601B70144195509660977094F31A3
:1003400051056105710548F0E5FD05C034E023164F
:10035000310409F094C0260137014F855889698519
:100360007A854617570799F5AF8DB8A1AB2B09F0E1
:1003700053C0B4E02B16310409F04AC00E94A0001B
:1003800094E0292E312C1F8E18A2A985BA85AF873B
:10039000B88B2B893C892D8F3E8F49895A894B8F89
:1003A0005C8F7981798F1A8E2ACF0E94980064CF52
:1003B000CD82DE82EF82F88687CF212C312C84CF4C
:1003C00091E09F8F18A2AECF72E07F8F18A2A60196
:1003D000B701481959096A097B094F31510561056F
:1003E000710510F2F1FD11C084E028163104D9F531
:1003F000AF8DB8A146015701AB2B09F4BFCF6F8D6C
:1004000078A16130710531F50CC046015701ACCFC0
:10041000C1010E94A500B9CF2F8D38A1213031052F
:10042000A9F40115110519F134E02316310429F45A
:100430000E94A0000F8F18A3A8CFC1010E94A500A1
:1004400041E04F8F18A201E010E09FCF64E0261634
:100450003104F9F40E94A00084E0282E312C72E0CF
:100460007F8F18A292CF46015701012B31F70E94CE
:10047000A00051E05F8F18A200E010E086CF2F852A
:10048000388949855A85260137012417350709F02F
:100490009BCFC1010E94A50082E08F8FE2CFA1E235
:1004A0001A2EAA1BBB1BFD010DC0AA1FBB1FEE1FEE
:1004B000FF1FA217B307E407F50720F0A21BB30B39
:1004C000E40BF50B661F771F881F991F1A9469F7B5
:1004D00060957095809590959B01AC01BD01CF0111
:1004E00008950E947802B7FF0895821B930B089528
:1004F000A29FB001B39FC001A39F700D811D112465
:10050000911DB29F700D811D1124911D0895F894C5
:02051000FFCF1B
:00000001FF
